:020000041000EA
:1000000000B5324B212058609868022188439860DF
:10001000D860186158612E4B002199600221596106
:100020000121F02299502B49196001219960352056
:1000300000F044F80222904214D00621196600F024
:1000400034F8196E01211966002018661A6600F04E
:100050002CF8196E196E196E052000F02FF8012189
:100060000842F9D1002199601B49196000215960AB
:100070001A491B48016001219960EB211966A021F2
:10008000196600F012F800219960164914480160C1
:100090000121996001BC002800D000471248134993
:1000A000086003C880F30888084703B5996A0420EC
:1000B0000142FBD001200142F8D103BD02B5186610
:1000C0001866FFF7F2FF186E186E02BD00000240BE
:1000D000000000180000070000035F00212200005C
:1000E000F4000018222000A00001001008ED00E03C
:1000F00000000000000000000000000074B24E7A12
:1001000000200420F7010010C3010010C5010010F9
:10011000C1010010C1010010C1010010C101001097
:10012000C1010010C1010010C1010010C701001081
:10013000C1010010C1010010C9010010CB01001065
:10014000CD010010CD010010CD010010CD01001037
:10015000CD010010CD010010CD010010CD01001027
:10016000CD010010CD010010CD010010CD01001017
:10017000CD010010CD010010CD010010CD01001007
:10018000CD010010CD010010CD010010CD010010F7
:10019000CD010010CD010010CD010010CD010010E7
:1001A000CD010010CD010010CD010010CD010010D7
:1001B000CD010010CD010010CD010010CD010010C7
:1001C00000BE00BE00BE00BE00BE00BEEFF3058054
:1001D000103800BEF2EB887120060B1044060B109D
:1001E0003402001090A31AE700201F49086006C8D7
:1001F00081F3088810471D48006800282FD10DA4FE
:100200000ECC002902D000F012F8F9E71849194A7B
:10021000002000E001C19142FCD1174988471749ED
:1002200088471749884700BEFDE701C901C29A42C5
:10023000FBD3704744060B10C0000020842400202C
:10024000082A0B100000042000000420082A0B10CC
:10025000001004200010042000000000704709482E
:1002600004F078FF0047000008ED00E0000000D037
:1002700088240020A4B40220C53D001011070010FE
:10028000873D00105756000006005250ABB3605334
:100290005881081006005250861C0302688108101D
:1002A000060052505422A29D808108100500525031
:1002B000DE65F468082A0B10F8B5C0460648074901
:1002C000091A8B10C90FC91810B5491003D0044B77
:1002D000002B00D0984710BD8424002084240020E7
:1002E00000000000054B10B5002B03D00449054861
:1002F00000E000BFFFF7E2FF10BDC04600000000B5
:10030000DCB00220F074081010B5012001F068F88C
:1003100010BD000070B584B006000C0001AB02AA4D
:1003200003A901F015FF051E04D1002C09D12000FE
:1003300004B070BD019A0299039801F0CDFE2C0023
:10034000F5E70248310003F0B9FDC046F07408102B
:10035000F0B5C64600B584B004000E0017001D00BD
:1003600002F09CFD8046E117FA2292000023200053
:1003700005F0DEFF02000B00029501970096404653
:1003800002F0A4FE04B080BCB846F0BD10B5012058
:1003900021F04CF9012010BD10B5030000681A00CF
:1003A0000832904203D09968013106F0C9F910BDB6
:1003B000F0B5CE46474680B5F7B0574B1B681B6873
:1003C0009946564A136852689046002500E03B1D46
:1003D0001F00984523D01C68200000F019FB64AE74
:1003E0002100300000F014FD3100200000F03BFB44
:1003F0003000FFF7D1FFA168281C05F0BBFF051CEA
:10040000200000F036FB0100200000F009FB200076
:1004100000F02FFB0028DAD023689946D7E732ACEA
:10042000200047F073FD3E49200046F083FE0400A3
:10043000FE218905484605F0FFFF002865D004220B
:1004400023680C3B1B68E3185A60484606F066F8C0
:1004500002000B00200046F041FF324946F06AFEE0
:10046000314B1E686AAC33A9200054F0DDF86A995C
:1004700030002CF027FC2000FFF78EFF684647F085
:1004800045FD2749684646F055FE04002749281CCB
:1004900005F0D2FF00283AD0042223680C3B1B68E9
:1004A000E3185A602149281C05F069FF06F036F868
:1004B00002000B00200046F011FF0400FE21890518
:1004C000281C05F0ABFF002823D11949200046F075
:1004D00031FE184946F02EFE174B1D6870AC01A97D
:1004E000200054F0A1F8709928002CF0EBFB2000BC
:1004F000FFF752FF684647F0D9F832A847F0D6F820
:1005000077B0C0BCB946B046F0BD012298E70322DF
:10051000C3E70349DAE7C046E8AF02203C3E0220C9
:1005200008A108102475081054B4022000007A4471
:1005300074AB08102875081050B4022010B50B6871
:10054000002B0DDB934205D95200934202D20A6080
:10055000002A08DB0868013008D406F0E1F810BD75
:1005600003483AF03FF9034B0B60F3E73AF0F2F837
:100570002C750810FFFFFF7F70B505004468036805
:10058000E31A9B100C48C01A88420DD38B4200D34B
:100590001900C8182B68E41AA410A04209D38023BC
:1005A0009B05984203D270BD10003AF01BF9024837
:1005B000F9E70148F7E7C046FFFFFF1F10B5040049
:1005C0000068002803D06168890006F0B9F82000AF
:1005D00010BD10B5012A04D0002A04D006F09AF804
:1005E00001E00B78037010BD70B582B004000E00FE
:1005F000551A01950F2D0ED8009420682A0031005D
:10060000FFF7E7FF002200920199616023685B1801
:100610001A7002B070BD002201A9FFF78FFF2060A1
:10062000019BA360E8E7000070B504000D00030023
:100630000833036000290AD008007BF0C7FC2A18A1
:10064000002329002000FFF7CFFF200070BD0148E4
:100650003AF0B0F84475081010B5002380229205D6
:1006600091425B41002B03D1880006F059F810BD80
:100670008023DB05994201D33AF07CF83AF06AF81E
:10068000F0B5CE46474680B585B004008946184A85
:100690000121FFF771FF0700236898466668F61A84
:1006A000002201002000FFF7D7FF0500019002970C
:1006B00003944B461B688351002E14DC0436AE199C
:1006C00001A843460193A168C91A89104160FFF748
:1006D00075FF25606660BF00ED19A56005B0C0BC60
:1006E000B946B046F0BD3200414606F013F8E5E7E2
:1006F0007875081010B543688268934205D00A687F
:100700001A6043680433436010BDFFF7B9FFFBE78D
:10071000F0B5DE4657464E464546E0B5C7B0012126
:100720008548FFF7F7FD06F01FFA08AC18220021F4
:10073000200005F0E9FF814923000022012040420A
:10074000FFF706FE7E4806F0D3F90AF03BFE01F003
:100750008DFC01F001FC7B4C7B4F402221003800D6
:1007600000F0A4FC794B412221000593180000F011
:100770009DFC774B442221000693180000F096FC64
:10078000744B452221000793180000F08FFC502085
:1007900005F0C6FF0600704B1B689A466F4B1B683E
:1007A0009B466F4D0EAB984614AA29001800FFF720
:1007B0003BFF6C4C15AB99461BAA04942100180012
:1007C000FFF732FF684C02944B4601934346009377
:1007D0005B4652463900300000F074F9634B9B468B
:1007E0001E604846FFF7D8FD4046FFF7D5FD502074
:1007F00005F096FF82465E4B1B6898465D4B1B6872
:1008000099461CAE22AA29003000FFF70DFF23AF46
:1008100029AA04993800FFF707FF02940197009670
:100820004B4642460599504600F04CF9524B9946CA
:1008300052461A603800FFF7AFFD3000FFF7ACFDFD
:10084000502005F06DFF05904C4B1B6898464C4BB3
:100850001B689A462AAE30AA29003000FFF7E4FE52
:1008600031AF37AA04993800FFF7DEFE02940197F2
:1008700000965346424606990598824600F022F9B2
:10088000404B984652461A603800FFF785FD30000D
:10089000FFF782FD502005F043FF06003A4B1B682E
:1008A0009A463A4B1B68059338AF3EAA2900380098
:1008B000FFF7BAFE3FAD45AA04992800FFF7B4FE42
:1008C000029401950097059B52460799300000F06D
:1008D000F9F82F4C26602800FFF75EFD3800FFF77F
:1008E0005BFD2C4D59462800FFF704FF49462800C0
:1008F000FFF700FF41462800FFF7FCFE210028001B
:10090000FFF7F8FEFA2124480022490024F052FDA6
:10091000224B18600121494224F085FE872120489E
:100920000022490024F046FD1E4B1860012124F0EE
:100930007AFE24F0C3FDFCE7D0FB01008D0300101C
:100940009475081018130020C8AF0220D0AF022001
:10095000D8AF0220E0AF022058B4022040B40220F9
:10096000AC750810B4750810CDCC2C40E8AF02204F
:100970005CB4022044B40220ECAF022060B4022038
:1009800048B40220F0AF022064B402204CB402202C
:10099000F4AF02203C3E0220B103001008B1022057
:1009A00009030010483E0220F0B5C64600B5040019
:1009B0000F0016001D00C06800F060FB8046E06874
:1009C00000F064FB0400002F06D0404605F045FD12
:1009D0000E4905F0D4FC3860002E03D0200005F04D
:1009E0003CFD3060002D0ED0404605F036FD074935
:1009F00005F0C5FC061C200005F02FFD011C301C75
:100A000005F0D3FC286080BCB846F0BD00007A44F5
:100A100010B503000833021D0100FFF7C5FF10BD2C
:100A200010B54C23C35C8B4207D04C23C154002922
:100A300004D00069002101F037F910BD00690021E0
:100A400001F04EFAF9E710B5002801D1012010BDE0
:100A5000C317C018584004F0B5FE04F0B1FF04F00D
:100A6000C9FE0130F3E710B5406909682CF02AF996
:100A700010BD10B503000068996C05F0CFFC00288C
:100A800001D0002010BD0120FCE7B0B507000C002C
:100A9000083038600B680D0008359D420AD03B6075
:100AA0008B68BB6063687B60256000236360237292
:100AB0003800B0BD4B685A1C0133F3D0290005F053
:100AC00029FEEFE710B50400002020606060A06000
:100AD000E16022616361200018300299FFF7D5FFC1
:100AE000200030300399FFF7D0FF049BA3644C2310
:100AF0000122E254200010BD30B583B00400019102
:100B00000368020008329A4205D08268019B934232
:100B100003D803B030BD0F22F8E701A92000FFF78A
:100B20000DFD0500216862680132FFF752FD2000CB
:100B3000FFF732FC2560019BA360EAE710B5012AAC
:100B400004D0002A04D078F017FB01E00B78037082
:100B500010BDF0B5CE46474680B583B004000E0008
:100B6000170099464068431A9B1A98460A9B9C4670
:100B70006044801A01902368220008329A421BD0F8
:100B8000A26801A92000FFF7D9FC0500002E15D1AD
:100B90004B46002B02D00A9B002B14D14346002B5E
:100BA00017D12000FFF7F8FB2560019BA36003B07D
:100BB000C0BCB946B046F0BD0F22E2E72168320062
:100BC000FFF707FDE4E7A8191A004946FFF701FD02
:100BD000E4E70A9BF0182168F6198919281842469B
:100BE000FFF7F7FCDDE70000F0B5C64600B584B0BE
:100BF000040002930A9E4568531B264884466344BA
:100C00009E4224D87719BF1A2368200008309842E2
:100C100020D0A068B84236D358188046691A891A7D
:100C200002980390984202D35B19984214D9002984
:100C300001D0B24218D1002E1FD167602368DB19A2
:100C400000221A70200004B080BCB846F0BD1248E3
:100C500039F0C8FD0F20DDE7019100960300414601
:100C6000200047F02DFBE8E713004344424690196B
:100C70000A001900FFF762FFDDE7320002994046E3
:100C8000FFF7A7FCD9E70096029B2000FFF761FF62
:100C9000D3E7C046FFFFFF7FBC75081020B582B0C8
:100CA00015004268914209D8521AAA4200D92A0076
:100CB000049D0095FFF798FF02B020BD034D044846
:100CC00013000A00290039F0A5FDC046D8750810A8
:100CD000F075081000B583B01368526800920022C6
:100CE000FFF7DCFF03B000BD70B582B004000B005D
:100CF00041685518006826000836B0420CD0A66836
:100D0000AE4210D3002A09D1656023685B19002226
:100D10001A70200002B070BD0F26F1E740181900CC
:100D2000FFF757FCF0E7009200222000FFF711FFC9
:100D3000EAE7000010B54468044B1B1B9A4202D836
:100D4000FFF7D2FF10BD024839F04CFDFFFFFF7FD7
:100D500028760810F8B504000F0015001E000300E7
:100D600008330360002343600372069BD118FFF72A
:100D7000C3FE2A0039002000FFF7DCFF069A31008D
:100D80002000FFF7D7FF2000F8BD70B584B0040045
:100D90000D00160008007BF019F902003368716835
:100DA00003A80190009129002000FFF7D3FF200045
:100DB00004B070BDF0B585B0040015000E684F6832
:100DC00010007BF003F903AB019300902B003A0075
:100DD00031002000FFF7BEFF200005B0F0BD00008D
:100DE00070B504000D0008007BF0F0F802006168A7
:100DF000054B5B1A984204D829002000FFF774FFC6
:100E000070BD024839F0EEFCFFFFFF7F2876081026
:100E1000F0B5DE4657464E464546E0B5814CA54402
:100E200005900C00486805F03FFBFFF70CFE06003C
:100E300044AD280047F06AF8449B0C3B1A68AA1896
:100E40000421884691601F68EF19380039F064FD6D
:100E500030239B4644335A46FA54606805F024FB1D
:100E60000100280046F036FA6F4946F063F945A9BB
:100E70003EA853F0D9FB4246961B14329446A44434
:100E800062467CA98946694B019219000393484642
:100E9000FFF77BFF664F39004846FFF7A1FF0100CF
:100EA00076A88246FFF7F1FD524631003EA8FFF7D3
:100EB00011FF5046FFF770FA4846FFF76DFA3026EB
:100EC000B146A1444E46300088AE5A4B0290020013
:100ED000049319003000FFF758FF39003000FFF786
:100EE0007FFF010082AB99461800FFF7CEFD4A460E
:100EF00000213EA8FFF7EEFE4846FFF74DFA30000E
:100F0000FFF74AFAA06805F0CFFAFFF79CFD82468A
:100F10000CAE300046F0FAFF0C9B0C3B1A68B2187E
:100F2000404690601B689946B144484639F0F4FC4D
:100F3000484674235946C154A06805F0B5FA01002B
:100F4000300046F0C7F93C4946F0F4F806AB9B4642
:100F50000DA9180053F068FB434654461C1B94AB84
:100F60009946019A03991800FFF70FFF3900484688
:100F7000FFF736FF01008EAB9A461800FFF785FD9C
:100F8000524621005846FFF7A5FE5046FFF704FAE7
:100F90004846FFF701FAA0AC029A04992000FFF737
:100FA000F4FE39002000FFF71BFF01009AAB9946C1
:100FB0001800FFF76AFD4A4600215846FFF78AFEEF
:100FC0004846FFF7E9F92000FFF7E6F9A6AC3A003A
:100FD0003EA92000FFF7EEFE06995B465A68200006
:100FE000FFF7A8FE0100059F3800FFF74EFD200027
:100FF000FFF7D2F95846FFF7CFF9300046F056FB1D
:101000003EAB1800FFF7C8F9280046F04FFB380048
:10101000AD239B009D44F0BCBB46B246A946A0460A
:10102000F0BDC0464CFDFFFF407608104476081026
:10103000D0C0081000BF081048760810F0B587B07F
:1010400006000F226A44117005AC00272780017941
:10105000094D01230093280006F056F831790097D6
:1010600002232200280006F05BF8237860781B0238
:10107000184307B0F0BDC0461813002010B5022178
:10108000FFF7DCFFC008800080B210BD10B5012161
:10109000FFF7D4FF044B984200D900200A2104F046
:1010A000ADF880B210BDC046204E000010B5030060
:1010B000080019601A710E4905F0FAFF0321082093
:1010C00001F098F80321092001F094F80022012191
:1010D000082001F0A7F800220121092001F0A2F860
:1010E000044B00221A80044B1A80012010BDC04618
:1010F000A08601009CB402209EB40220074B1B680E
:101100009B01A022D205944663441B69DB0104D4F1
:10111000D0231B06802252035A617047C02C022044
:10112000D0231B06802252039A61704710B582B00B
:101130006B46DC1DD871FFF7F3FFD0231B0680221E
:1011400092029A6101222100034886F091F9FFF78B
:10115000D5FF02B010BDC04600C0034010B582B03C
:101160006B46DC1DD871FFF7DBFFD0231B06802206
:1011700092025A6101222100034886F079F9FFF7B3
:10118000BDFF02B010BDC04600C0034070B50400F2
:101190000D00FFF7C5FFD0231B06802292025A6183
:1011A0002A002100024886F063F9FFF7A7FF70BD0F
:1011B00000C00340F0B5C64600B582B007000C0081
:1011C00015001E00FFF7ACFF2837BFB22835ADB2BF
:1011D0003534A3B298463536B6B22A20FFF7A6FFBB
:1011E00001AC3B0A237067702B0AA370E5700421E1
:1011F0002000FFF7CBFF2B20FFF798FF43461B0A89
:10120000237043466370330AA370E6700421200004
:10121000FFF7BCFF2C20FFF789FFFFF76FFF02B03D
:1012200080BCB846F0BD000010B50C2906D8036894
:10123000054A1340C9020B43036010BD034B044A27
:101240000448C32102F0A2FDFF87FFFF4C7608107F
:10125000CCD008106C76081000B583B001000023D4
:10126000019310330193134B019301A8FFF7DCFFA7
:10127000019B0C22190091430A0008210A430192A4
:101280000D4A1A400A4301920C4A1A400A4301923D
:101290000B4A1A401143019109210A430192094A5C
:1012A0001A400A430192084818400843019003B0CD
:1012B00000BDC04610801F0033F8FFFF33F8BFFFAA
:1012C00033F89FFF33F81FFF31F81FFF10B53F2998
:1012D00006D80368054A1340C9030B43036010BDD9
:1012E000034B044A0448B52102F050FDFF7FE0FFA4
:1012F000CC760810B4D008106C76081070B50400D5
:101300000D00FFF70DFFD0231B06802292025A61C9
:101310000D4B186805F0C0FF00280ED00A4A13686C
:101320009B01A021C9058C4663441C6013689B0186
:101330006344DD61FFF7E2FE70BD2A00210003482F
:1013400086F096F8F6E7C046C02C022000C00340A5
:1013500010B504003620FFF7E9FE022C12D007D8A2
:10136000002C0BD0012C0CD1A020FFF7F7FE08E0D9
:10137000032C06D16020FFF7F1FE02E0C020FFF74A
:10138000EDFE10BD0020FFF7E9FEFAE7F8B5040016
:101390000D0016001F00EF2807D8862905D88318EE
:1013A000F02B02DCCB19872B00DDF8BDFFF7B8FE70
:1013B000A21992B2EB199BB2013B9BB2013A92B2D5
:1013C00029002000FFF7F6FE7E4371000698FFF724
:1013D00095FFFFF793FEE8E710B501F00AFF10BD97
:1013E000002805D0D0231B06802292035A61704743
:1013F000D0231B06802292039A61F8E7F0B585B0EE
:10140000102000F029FFD026360680277F02776261
:10141000112000F021FF80239B027362142000F052
:101420001BFF80235B037362152000F015FF8023F0
:101430009B0373620020FFF7D3FF6C4C6C492000C4
:1014400005F0DCFE0121132000F0D4FE0121122062
:1014500000F0D0FE63680222134066490A602168EA
:10146000C532514008320A4063490A60634A13603A
:10147000634D2868FFF7F0FE624C20600C23984310
:10148000206010212000FFF721FF22681023134362
:1014900023605D4B13432360286805F007FF2B682A
:1014A0009B01A022D2059446634400221A6057494A
:1014B00059609A6022681A611920FFF78DFFB761A1
:1014C0001920FFF789FF77613220FFF785FF3A2067
:1014D000FFF72CFE5520FFF741FEB220FFF726FE56
:1014E0006C464B4B1A6800921B79237105216846A4
:1014F000FFF704FF0320FFF72BFFB720FFF716FECF
:101500003520FFF72BFEBB20FFF710FE1920FFF759
:1015100025FEC020FFF70AFE2C20FFF71FFEC22089
:10152000FFF704FE0120FFF719FEC320FFF7FEFDC1
:101530001220FFF713FEC420FFF7F8FD2020FFF76D
:101540000DFEC620FFF7F2FD0F20FFF707FED020AB
:10155000FFF7ECFDA420FFF701FEA120FFF7FEFD41
:10156000E020FFF7E3FD2B4B6E4607CB07C61B8839
:1015700033800E216846FFF7C1FEE120FFF7D6FD5C
:10158000254B6A4683CB83C21B8833800E21684675
:10159000FFF7B4FE2120FFF7C9FD1120FFF7C6FDBC
:1015A0001320FFF7C3FD2920FFF7C0FD2B6801249E
:1015B00022009A40194B1A6019490B2000F07EFF57
:1015C00001210B2000F06AFF2A689440A021C90580
:1015D0008623DB00CC509301A021C9058C466344CF
:1015E0001B69DB01F7D405B0F0BDC04600C0034065
:1015F00040D2DF0304F0034000D0034004E0034086
:10160000C02C0220BC2C02201000400008C0034067
:10161000E8D00810E0760810F07608100424005096
:10162000B1200010F0B5DE4657464E464546E0B5BF
:1016300085B0002009F016FFFE4E3060102109F041
:101640005CFF3068002200210FF0C3F830680022F0
:10165000FF210FF0C5F8306809F004FFF64C206058
:10166000A8210BF00BF8206821210BF01FF820684F
:1016700020210AF0C9FF3221206849420AF0DCFF2C
:10168000206809210BF0E4F82068102109F035FFEB
:1016900020680022E94B191C0FF09BF820680022FB
:1016A000FF210FF09DF82068002200210FF0ECF8D8
:1016B00020680022FF210FF0EEF8019420682AF044
:1016C000CBFDDF4C2060DF490AF0D8FF2068DD4900
:1016D0000AF0ECFF2068012149420AF095FF2068DA
:1016E00002210AF0A9FF206809210BF0B1F8206857
:1016F00004212BF0A3FBD44B2068984619002BF053
:10170000E1FA206801212BF009FC20680022CF4F6C
:10171000391C0FF084F920680022FF210FF086F9B0
:10172000CB4B20680022994619000FF086F92068FB
:101730008022C84D291C0FF04CF820688022FF2120
:101740000FF04EF82068802200210FF09DF82068ED
:101750008022FF210FF09FF8306809F083FEBE4B16
:101760009A461860A8210AF089FF5346186821217B
:101770000AF09CFF5346186820210AF045FF11210A
:101780005346186849420AF057FF53461868092122
:101790000BF05EF853461868102109F0AEFE534670
:1017A00018680022AD4B191C0FF013F85346186847
:1017B0000022FF210FF014F8534618680022002180
:1017C0000FF062F8534618680022FF210FF063F80B
:1017D000534618688022291C0EF0FBFF53461868F8
:1017E0008022FF210EF0FCFF534618682AF034FDDA
:1017F0009B4D286093490AF041FF286891490AF0FF
:1018000055FF286800210AF0FFFE286802210AF02F
:1018100013FF286809210BF01BF8286804212BF01E
:101820000DFB286841462BF04DFA286801212BF06A
:1018300075FB28680022391C0FF0F1F82868002297
:10184000FF210FF0F3F802952868002249460FF0B7
:10185000F4F8306809F006FE824F3860A8210AF0DB
:101860000DFF386821210AF021FF386820210AF095
:10187000CBFE386810210AF0DFFE386809210AF033
:10188000E7FF3868102109F038FE38680022764BEF
:10189000191C0EF09EFF38680022FF210EF0A0FFF9
:1018A0003868002200210EF0EFFF38680022FF2187
:1018B0000EF0F1FF3868802266490EF08AFF386822
:1018C0008022FF210EF08CFF38682AF0C5FC674BA0
:1018D0009B4618605B490AF0D1FE5846006859499A
:1018E0000AF0E4FE5846006800210AF08DFE5846D2
:1018F000006802210AF0A0FE5846006809210AF09B
:10190000A7FF5846006804212BF098FA5846006853
:1019100041462BF0D7F95846006801212BF0FEFA1A
:10192000584600680022494B191C0FF078F85846B9
:1019300000680022FF210FF079F858460068002265
:1019400049460FF07AF8306809F08CFD484D286060
:10195000A8210AF093FE286821210AF0A7FE286832
:1019600020210AF051FE286831210AF065FE28681E
:1019700009210AF06DFF2868102109F0BEFD2868D2
:10198000002207210FF07CF828680022394B191C2F
:101990000EF01FFF28680022FF210EF021FF2868AB
:1019A000002200210EF070FF28680022FF210EF0B7
:1019B00072FF2868802227490EF00BFF28688022DA
:1019C000FF210EF00DFF28682AF046FC2A4B0093F9
:1019D00018601C490AF052FE009B186819490AF069
:1019E00065FE009B186800210AF00EFE009B186837
:1019F00002210AF021FE009B186809210AF028FF45
:101A0000009B186804212BF019FA009B18684146C6
:101A10002BF058F9009B186801212BF07FFA009BEE
:101A20001868002209490EF0FAFF009B186800228E
:101A300024E0C0460CB402202CB4022006E4FFFFD0
:101A400014B40220D127000000770810EF5D0000D9
:101A5000283F0910AD55000030B402204E9DFFFF15
:101A600018B4022034B40220F2CBFFFF1CB40220D1
:101A700038B40220F686FFFF20B40220FF210EF0CA
:101A8000D5FF009B1868002249460EF0D6FF30684B
:101A900009F0E8FC724E306080210AF0EFFD3068FA
:101AA0003C210AF003FE306808210AF0ADFD222136
:101AB000306849420AF0C0FD306809210AF0C8FECA
:101AC0003068102109F019FD3068002201214942D7
:101AD0000EF07FFE30680022FF210EF081FE30689C
:101AE0000022012149420EF0CFFE30680022FF2182
:101AF0000EF0D1FEE1213068002289000EF02AFEAE
:101B000030682AF0A9FB57498946086056490AF00F
:101B1000B5FD4946086854490AF0C8FD49460868B9
:101B200000210AF071FD494608680E210AF084FD83
:101B30004946086809210AF08BFE494608680421D5
:101B40002BF07CF94949484600682BF0BBF8494620
:101B50000868002200210EF062FF49460868002252
:101B6000FF210EF063FF424B49460868002219002E
:101B700003930EF062FF48460068002200210EF039
:101B8000E9FD30682AF068FB3A4B98461860364900
:101B90000AF074FD4046006833490AF087FD40466C
:101BA000006800210AF030FD0E21404600684942DD
:101BB0000AF042FD4046006809210AF049FE40460D
:101BC000006804212BF03AF92B49404600682BF0BD
:101BD00079F840460068002200210EF020FF4046C0
:101BE00000680022FF210EF021FF4046006800221D
:101BF00003990EF022FF41460868002200210EF0F2
:101C0000A9FD1E4B019A12681A601D4B22681A60CA
:101C10001C4B51460A681A601B4B029A12681A60E4
:101C20001A4B3A681A601A4B59460A681A60194BDF
:101C30002A681A60184B009A12681A60174B3268AB
:101C40001A60174B4A4612681A60164B42461268D1
:101C50001A6005B0F0BCBB46B246A946A046F0BD2E
:101C60003CB4022024B40220D127000010770810D1
:101C7000F0D0081028B402201C77081058B40220B5
:101C800040B402205CB4022044B4022060B40220BC
:101C900048B4022064B402204CB4022068B402208C
:101CA00050B4022054B40220F0B5DE4657464E46EA
:101CB0004546E0B5A3B083460F00102021F0ACFEEE
:101CC00005005B46036001267642C66011AC200029
:101CD0001FF0DAFDFA235B00E362A5612460274B65
:101CE0006360AF23236263620025A562244BE36136
:101CF0007B4298462363234B9A462361A563656321
:101D000040239946E552E5634227E35D0122934370
:101D1000E3551D4B636120001FF02AFE102021F0C7
:101D20007BFE04005B460360C6606E4668461FF09B
:101D3000ABFDFA230B9306940096144B0193089580
:101D40000995FF230A93124B079343460C9353467E
:101D500004930E950D954B46F5520F95F35D0122B8
:101D60009343F3550B4B059368461FF001FE23B0D8
:101D7000F0BCBB46B246A946A046F0BDD51F001038
:101D8000151B0210C51F0010F31F0010E31F0010E9
:101D9000E11A0210FF1F0010F0B5DE4657464E460E
:101DA0004546E0B5A3B083460F00102021F034FE75
:101DB00005005B46036001267642C66011AC200038
:101DC0001FF062FDFA235B00E362A5612460284BEB
:101DD000636064235B42236263620025A562254B36
:101DE000E3617B4298462363234B9A462361A563B4
:101DF000656340239946E552E5634227E35D01228E
:101E00009343E3551D4B636120001FF0B1FD10208B
:101E100021F002FE04005B460360C6606E46684621
:101E20001FF032FDFA230B9306940096144B019396
:101E300008950995FF230A93124B079343460C9389
:101E4000534604930E950D954B46F5520F95F35D51
:101E500001229343F3550C4B059368461FF088FD10
:101E600023B0F0BCBB46B246A946A046F0BDC04672
:101E7000D51F0010151B0210C51F0010F31F001006
:101E8000E31F0010E11A0210FF1F001010B505F04B
:101E900059FF262800D010BD0C4B18680021FFF711
:101EA00003FF0B4B18683221FFF7FEFE094B186841
:101EB0006421FFF7F9FE084B18689621FFF7F4FE3E
:101EC000064B18680021FFF767FFE4E72CB40220F7
:101ED00030B4022034B4022038B402203CB40220D2
:101EE00070B592B004000D00102021F095FD0600A1
:101EF000046001235B42C36001AC20001FF0C4FCFE
:101F0000FA235B00E362A66124600F4B6360002349
:101F100023626362AF22A2620C4AE2616D422563D2
:101F20000B4A2261A36363634022A352E36302323C
:101F3000A35C01218B43A354064B636120001FF077
:101F400017FD12B070BDC046D51F0010151B021042
:101F5000C51F0010F31F001030B583B01EF0F8FF4E
:101F60000400052020F0EBFD051C002020F0E7FD1B
:101F7000021C104B00930023291C200017F0A0F82E
:101F80000100200005F0B2FAFFF74CFB002009F039
:101F900069FA094C206009490023002205F000FF7E
:101FA000206805F0E7FC064B186805F0E3FC03B079
:101FB00030BDC04684AA091010B402208D1E001046
:101FC0000CB4022010B50400806921F041FD00230B
:101FD000A36110BD10B58369186809B20AF014FB3B
:101FE00010BD10B583691868C9B200220EF056FD05
:101FF00010BD10B5836918680AF08FFC10BD10B5CC
:1020000083691868602200210DF043FEFF23184009
:1020100010BD000030B583B014000D4B1B78002BB1
:1020200001D103B030BD0423CA5E0023C85E121A7A
:10203000013206254B5F0225495F5B1A01339BB2D3
:1020400092B289B280B20094FFF7A0F9E9E7C046E6
:102050006012002010B5FFF7D1F9012005F00AF950
:10206000014B186010BDC046C02C022070B5FFF7B0
:10207000F1FFE1230A490B4D9B01002228001EF0CD
:102080006DFE094C20001EF03BFEF0232380693BCF
:102090006380064B6361E56020001EF06CFE70BD3E
:1020A0004C3E02209CAF02204CAF022015200010B5
:1020B00010B5064B1A6801239340A021C905044AB4
:1020C0008B5004481FF0DDF810BDC046C02C022024
:1020D0000C0400004CAF0220F0B583B004000D00EA
:1020E000160000F0C5F8002801D003B0F0BD154F70
:1020F00000973B0001220121053001F06BFC0096A6
:102100002B0022000121104801F06EFD31006943CF
:10211000200003F073F804000C4B0093002202210E
:10212000042001F057FC0094230000220121052027
:1021300001F050FC00973B0002220021062001F034
:1021400049FCD2E7006CDC0200800240001BB700B3
:10215000F0B5DE4657464E464546E0B583B080466C
:102160008B4692460193A0235B0099462AE0013CEE
:10217000002C1ED025007D432900300003F03EF8DE
:102180004045F4D12900300003F038F80029EED1A1
:10219000144B4A4653435A46136053461F60019BF3
:1021A0001C60012003B0F0BCBB46B246A946A04665
:1021B000F0BD013F002F01D03C00D9E701235B4275
:1021C0009C46E1444B460F2B09D9074E4B465E43D4
:1021D000064BF218064B9A42F0D80727EAE7002090
:1021E000E0E7C046001BB700E02E0000508EF4FF71
:1021F00050F80C0010B58300084A944663441A68EE
:1022000040246240803414408022520113431C60F9
:10221000C000034B9C466044416010BD04C00140B7
:102220000040014080000B4B9C46604400290DD0CB
:102230000823002A0CD004221343026853400C22C6
:102240001A4080235B0103431A6070470023F0E7C4
:102250000022F1E704C0014010B501238340D022E1
:102260001206936293610521FFF7C4FF10BD0000C1
:10227000034B1B6802201840431E9841C0B27047B0
:1022800000C00640EFF3108072B6034B1B68002BB2
:10229000FBD0BFF35F8F70472C0100D0BFF35F8F7F
:1022A000024B00221A6080F3108870472C0100D086
:1022B000CB08C25C07230B40012098401040431E0E
:1022C0009841C0B27047F8B506000C001500FFF742
:1022D000D9FFE308F718F15C07222240012393405D
:1022E0000B4205D1DBB20B433B70FFF7D7FFF8BDC4
:1022F0002100280001F0E2FDF0B583B00600019155
:1023000014001F00FFF7BEFF00E00134BC420CD8F0
:10231000E308F518F35C0721214001228A401A42A4
:10232000F3D1D2B21A432A7001E001246442FFF7CC
:10233000B5FF002C02DB200003B0F0BD019B002B99
:10234000F9D0089801F0BAFD002307E0054A9A1871
:102350009200BFF35F8F0021116001331F2BF5D96D
:102360007047C04640000034054A1078431CDBB279
:102370001370172B02D9130010221A707047C04631
:1023800061120020074B9B68103080001950BFF38A
:102390005F8FBFF35F8F044B0021196082F31088B9
:1023A0007047C04600ED00E0240100D010B503885E
:1023B000DA0A1C2A05D15B055B1502335B00C018E5
:1023C00010BD034B034A0448B12101F0DFFCC046B5
:1023D00028770810BC9009104077081010B5091A2A
:1023E0000B1F0A4A88180A4A904208D8C90706D41F
:1023F0005B105B055B0D0748184380B210BD064BB0
:10240000064A0748A32101F0C1FCC046FC070000B2
:10241000FE0F000000E0FFFF90770810B090091059
:102420004077081010B5091A04394A08090B08D179
:102430004905490D064B0B430380064B134343806C
:1024400010BD054B054A0648AB2101F09FFCC04674
:1024500000F0FFFF00F8FFFFC0770810849009101C
:102460004077081001238340034A10681840431E38
:102470009841C0B27047C04600E100E0002904D096
:10248000034B1860034B18607047034B1860FBE761
:1024900080E200E000E100E080E100E010B501230F
:1024A00083401800FFF7EAFF10BD0000024B9B6855
:1024B00010308000C058704700ED00E070B5040097
:1024C0000D00EFF3108672B60C4B1B68002BFBD08F
:1024D000BFF35F8F2000FFF7E9FF094B984201D05F
:1024E000A84205D1320029002000FFF74BFF70BD44
:1024F000044B054A0548862101F048FC240100D020
:10250000CD010010D0770810CC900910407708104A
:10251000F0B5CE46474680B583B006000D00EFF318
:10252000108872B64F4B1B68002BFBD0BFF35F8F38
:102530004D4B9A6834001034A300D7584B4B9F4240
:1025400007D0AF4200D18BE00197494BFB1A2F2BEC
:1025500009D9424639003000FFF714FF03B0C0BC70
:10256000B946B046F0BD3000FFF77CFF8146002140
:102570003000FFF793FFBFF35F8FEFF30581002972
:1025800001D08C4211D10123019C9C430020A368FF
:10259000AB4212D00622A256002A0DDB53009B1834
:1025A0009B00334A2000D418F1E7324B324A3621DF
:1025B0003248FF3101F0EAFB2000AB4249D1062549
:1025C0006557002D2BDB2A4B6A00521992009B188D
:1025D0009A68A260DA79E2719B795BB2A371002BF1
:1025E0000FDA2748A080224B6A00521992009B18EC
:1025F000244A11789971157049463000FFF74EFF53
:10260000A7E7680040198000194BC0180430FFF795
:10261000CDFE0100231D1800FFF7E0FEE2E70029D0
:1026200012D100280ED0FF238371174B83801549E8
:102630000B78A3710E4A154BA41A644163431B0D1A
:102640000B70D9E7094FF2E71149201DFFF7EAFEA9
:10265000D2E7104B084A6A210848FF3101F096FB87
:10266000024F76E7240100D000ED00E0CD0100101C
:1026700064120020087808109C9009104077081018
:1026800001BD0000A2B4022001BDFFFFAAAA000004
:102690009E1200203C78081070B5012202432E4B98
:1026A000D31A2F2B28D8EFF30583002B2BD0EFF371
:1026B000108C72B6294909680029FBD0BFF35F8FDF
:1026C000254C274905002D1B6D416943090D4CB26E
:1026D000244989689B00C95891421BD000210329D5
:1026E00032D81D4B4A00521892009B189B795BB25E
:1026F000A3421FD00131F2E71B4B1C4AC7211C48E3
:10270000490001F043FB1B4B184A92211848FF3146
:1027100001F03CFB134A92681749D150174B1A78C5
:1027200082711C70BFF35F8F0C4B00221A608CF318
:10273000108870BD084B4A005518AD005D19FF2682
:10274000AE710F4AAA80E9E70E4B084AD12108482A
:10275000490001F01BFBC04664120020240100D098
:10276000AAAA000000ED00E0447808106890091063
:10277000407708106C780810CD010010A2B4022038
:1027800001BDFFFF787808100022044B02E00449E5
:1027900002C30132072AFAD97047C04600E400E0BC
:1027A00080808080024B9C466144890001607047B4
:1027B0004000003410B50400FFF7D6FD01002000F2
:1027C000FFF7F0FFFF232371BFF35F8F10BD10B53C
:1027D0000400FFF7C9FD01002000FFF7E3FFFF231E
:1027E000237100236371BFF35F8F10BD084B5B6AD9
:1027F000994209D8064A926A824207D2994201D088
:10280000012002E0002000E0002070470120FCE7EA
:102810000040054010B500290AD003681B7B8B429D
:1028200006D38068054B9C4661440901401810BDE1
:10283000034B044A04483C2101F0A8FAFFFFFF0FB4
:1028400020790810F891091044790810F8B50400AF
:102850001700FFF7DFFF0668456839002000FFF723
:10286000D9FF026843680120AB4201D802D00020A2
:10287000C0B2F8BDB242FBD8F9E7000010B5002B9A
:1028800002DB0260436010BD024B034A03483F2154
:1028900001F07CFA90790810C4910910AC79081005
:1028A00010B582B004000498059912184B41002B12
:1028B00009DB6846FFF7E2FF009A019B2260636034
:1028C000200002B010BD01225242014BF1E7C04688
:1028D000FFFFFF7F10B5002908D0037B8B4205D393
:1028E00000684B005B18033BC01810BD024B034A45
:1028F0000348682101F04AFA047A0810A0910910EF
:10290000207A081010B5437B8B4201D1012010BD05
:10291000FFF7E0FF8378002B01D10020F7E70120CB
:10292000F5E770B50400857B002D01D1280070BD4E
:102930002900FFF7CFFF4378A373002B00D1E37387
:102940000023837043700370F0E70000F8B50600C1
:102950000C001500FFF7BEFF0700002C0DD0002D66
:1029600011D0AC4215D029003000FFF7B3FF8470BE
:102970003B78002B13D13D70F8BD0A4B0A4A0B4837
:102980006F2101F003FA0A4B074A0848702101F051
:10299000FDF9084B044A0548712101F0F7F943702D
:1029A0003D70E9E77C7A08107C910910207A0810C4
:1029B000887A0810947A081070B506000D0014008B
:1029C000002914D0002A14D0436880689847002852
:1029D00006D0220029003000FFF7B8FF280007E0EA
:1029E0002A0021003000FFF7B1FF200000E01000B6
:1029F00070BD0800FCE7000070B504000D1E0CD08F
:102A0000FFF768FF0023837043700370617B2A0027
:102A10002000FFF7D1FF607370BD034B034A0448E9
:102A2000A52101F0B3F9C046F47A0810909109107D
:102A3000207A081070B504000D1E0FD0FFF762FF5A
:102A400000280BD1E17B00290ED1A37B002B03D101
:102A5000E37B002B0DD1A573E57370BD084B094ACC
:102A60000948F62101F092F92000FFF733FF457085
:102A7000EBE7064B034A0448FB2101F087F9C04607
:102A8000AC7A08106C910910207A0810D07A0810DE
:102A900010B5002907D003681B7B8B4203D3C068A5
:102AA0000139401810BD034B034A0448412101F08D
:102AB0006DF9C04620790810589109104479081022
:102AC00010B50C00CB68834207D10B69080098470A
:102AD000002809D02068616810BD064B064A5221C3
:102AE0000648FF3101F052F90023E3600020002185
:102AF000F2E7C046E47A08100C91091044790810F6
:102B000070B505000C00080000F0FEFC094920002B
:102B100000F03EFCFFF728FC074B9C466044800019
:102B200068602C75D0231B061B786B75034BA400C3
:102B3000E55070BD4D2C001040000034F4B0022070
:102B40000A4B1A68EFF3108172B61368002BFCD0A1
:102B5000BFF35F8F054B1B68BFF35F8F00221A60C6
:102B600081F3108840BF002000217047F0B302209D
:102B700010B582B0040000F0CDFB02000B006846E7
:102B8000FFF77CFE009A019B22606360200002B088
:102B900010BD70B584B0040016001D0002A8FFF738
:102BA000E7FF029A039B009601952000FFF778FE4D
:102BB000200004B070BD0000F0B583B007000192A2
:102BC0001D000AAB1C780BAB1E78002C0BD00068E4
:102BD0002100FFF797FE002809D0194B194A1A481F
:102BE000672101F0D3F80068FFF79BFE0400002C7A
:102BF00002D1200003B0F0BD21003800FFF70AFE2B
:102C0000019B03604560089B8360099BC360386833
:102C10002100FFF7F1FEA042EBD1387D019A2B0095
:102C200000F0FEFB051E01D0002E04D00C9B002BF3
:102C3000DFD01D70DDE73868210000F0ABFDF5E75F
:102C4000F87A0810AC91091044790810F0B5DE4606
:102C500057464E464546E0B58FB00021794B82007D
:102C6000D6588A460B9083E039003000FFF7D2FD3A
:102C7000814602684368121BAB41002B09DD4B46BD
:102C80001A685B680B9800F0CBFB00239946002480
:102C90008AE0002B01D1002AF1D10021584600F032
:102CA0006FFD0500B84215D14B465C681B68089360
:102CB00009944B469C68DB689946002C10D039007B
:102CC0003000FFF7E5FE03789A461B021D4335618D
:102CD000002069E05C4B5D4A5D488E2101F056F8AA
:102CE0005C4B5A4A5A48922101F050F83369002B44
:102CF00000D177E0AB4219D10698079900234242F0
:102D00008B4100920193089A099B0CA8FFF7C8FD1C
:102D10000C9A0D9B002104910131039102974946C1
:102D2000019100943000FFF747FF16E04A4B474AF5
:102D30004748A12101F02AF8069A079B002B01D1F0
:102D4000002A52D130683900FFF774FE3900300094
:102D5000FFF79EFE0378013303700023336172682E
:102D6000BFF35F8F136088F310880120002862D0C2
:102D70000CA8FFF7FDFE0C9C0D9D0022002308927D
:102D800009937268EFF3108872B61368002BFCD0B9
:102D9000BFF35F8F33689B465F7B002F00D063E7F4
:102DA00000239946002400207368BFF35F8F002240
:102DB0001A6088F31088002CD8D053461D023D437A
:102DC00049462800A047069007917268EFF31088E3
:102DD00072B61368002BFCD0BFF35F8F079B002BEC
:102DE00000DA83E7079B002BA6DD3369002BA9D00F
:102DF000AB421AD10CAD2800FFF7BAFE0C9A0D9B1E
:102E000006980799009001912800FFF749FD0C9A58
:102E10000D9B0021049101310391029749460191D4
:102E200000943000FFF7C8FE97E70B4B074A0848AD
:102E3000A42100F0ABFF0FB0F0BCBB46B246A946E0
:102E4000A046F0BDF4B00220207B0810DC910910F0
:102E500044790810387B0810447B081010B50C4BDF
:102E60005B68002B04D00B480A21FFF79BFC10BDC8
:102E7000074C094A20682300102100F0ECFB0320D6
:102E800000F03CFA03212000FFF73AFEEBE7C046D2
:102E9000AC120020F0B302204D28001010B5064BF4
:102EA0005B68002B01D0044810BD044B044A054860
:102EB0005E2100F06BFFC046AC120020807B081042
:102EC0004091091044790810F0B5DE4657464E4649
:102ED0004546E0B58FB0050090460793189B9A468B
:102EE000199B99461AAB1B780993272304AA944689
:102EF000634400221A70CB4623E001002800FFF74C
:102F0000C7FD00783FE00898002B62D0099B002B9A
:102F10005FD05946D04706000F0003000B435FD037
:102F2000002945DB0AAC2000FFF722FE0A9A0B9B22
:102F3000009601972000FFF7B3FC0A9B98460B9B75
:102F400007936A68EFF3108972B6136859424B41D0
:102F5000D9B20891002BF8D1BFF35F8F273304AAB1
:102F60009446634404930023039302935B460193C6
:102F7000534600934246079B2800FFF71DFE06902C
:102F8000041EBAD106986B68BFF35F8F00211960E9
:102F900089F31088002C1AD0272304AA944663448E
:102FA0001B78002BAFD10002069A02431000ABE75A
:102FB00000237242BB41009201934246079B0AA83C
:102FC000FFF76EFC0A9B98460B9B0793B9E701201D
:102FD00040420FB0F0BCBB46B246A946A046F0BD89
:102FE0000898F6E7F0B5C64600B584B005008846F7
:102FF00016001F000AAB1C78FFF750FF02940197E0
:1030000000962A004346FFF75FFF04B080BCB84635
:10301000F0BD0000F0B5C64600B505000C1E42D05C
:103020004268EFF3108772B61368002BFCD0BFF331
:103030005F8FE6B22B68984631001800FFF762FCFC
:1030400000282AD02B69A34213D0240AE4B231000D
:103050002800FFF71DFD0378A34211D000206B6804
:10306000BFF35F8F00221A6087F3108880BCB846D8
:10307000F0BD0E4B0E4A2C210E48FF3100F086FEAB
:103080003100404600F086FB0028E8D10A4B084A90
:1030900099210848490000F079FE2B69A342DED14E
:1030A00000232B61DBE70020E0E7C046A47B08108B
:1030B0002891091044790810C87B081010B5040045
:1030C000FFF7ECFE2100FFF7A5FF10BDF0B587B0BC
:1030D0000500100019000E9C13000B4301D10120C4
:1030E0000021A5600C9B2361206061600D9B6361E2
:1030F000CE1737007040020071400B00921BBB419D
:1031000004A8FFF746FD049A059B01210291019452
:10311000044900912800FFF7D7FEE060C043C00FCC
:1031200007B0F0BDC12A001030B587B004000D0013
:10313000EFF30583002B20D106225242D317121938
:103140006B418B4202D803D1824201D90022002375
:1031500004A8FFF793FB02A8FFF70AFD0298039962
:10316000049A059B121A8B41002B0BDC08D020001F
:10317000290000F0DBF807B030BD144800F09EFED7
:10318000002AF4D0124A0498059900230093FFF70F
:1031900029FF002813DAEAE70E4B1A68EFF31081D3
:1031A00072B61368002BFCD0BFF35F8F094B1B680E
:1031B000BFF35F8F00221A6081F3108820BF04984C
:1031C0000599FFF713FB0028E6D0D0E7CC7B081069
:1031D000412B0010F0B3022000B583B002000B00B9
:1031E0006846FFF7D6FC00980199FFF79DFF03B0F2
:1031F00000BD10B5FA2292000023002103F098F8D8
:10320000FFF7EAFF10BD000030B583B005000C00E9
:10321000EFF30583002B0FD10B4A00230093FFF738
:10322000E1FE00280BDD20BFFFF748FF280021004A
:10323000FFF7DCFA03B030BDFFF7D8FAFAE7280051
:103240002100FFF7D3FAF5E7412B001010B5002B52
:1032500002DB0260436010BD024B034A03483F217A
:1032600000F094FD907908102C920910AC790810A8
:1032700070B5EFF305801038EFF3108C72B6194B70
:103280001B68002BFBD0BFF35F8F0122130083402C
:1032900015494B6315490B60154909780C00C4406A
:1032A000224213D0104A546A124A8500AA58944206
:1032B00005D3114AAA580E4C9943217007E00A4AD7
:1032C000031D9B0099589950002200E00022BFF393
:1032D0005F8F044B002119608CF31088002A00D006
:1032E000904770BD280100D0004005403C7005406B
:1032F000A3B40220F4B302202C3E022010B501003A
:10330000024A034B1800FEF7DEFF10BD1C7C0810BC
:10331000A1B40220044B5B6A034A906A1900536A05
:103320009942F9D17047C04600400540084B5B6A9E
:1033300001E0074B5B6A8B42FBD301E0044B5B6A05
:103340008B4203D1024B9B6A8342F7D37047C0463E
:1033500000400540F0B583B004000D00FFF7DAFF30
:1033600006000F0022002B0092197B41994202D8DF
:1033700004D1904202D901225242D3176846FFF786
:1033800065FF00980199FFF7D1FF03B0F0BD000081
:1033900070B504000E00EFF3108572B61B4B1B686E
:1033A000002BFBD0BFF35F8F002E1CD02000FFF757
:1033B0007DF8174B83420BD019002000FFF77EF8F1
:1033C00001212000FFF76AF80123A340114A13608E
:1033D000114BA400E650BFF35F8F0C4B00221A6024
:1033E00085F3108870BD0C4BA2000021D150012242
:1033F000A2400A490B7893430B7005492000FFF760
:1034000087F800212000FFF749F8E4E7280100D001
:1034100071320010386005402C3E0220A3B4022017
:10342000F0B5DE4600B584B00400150001921E0020
:103430000293FFF76FFF03958E4202D84ED185426B
:103440004CD9EFF3108B72B6274B1B68002BFBD0C7
:10345000BFF35F8F254A17780125A540EBB23B43A8
:103460001370234B5D63221D92000199D150214AB4
:10347000A100029888501B6A2B4212D11C4B1B6C76
:103480002B4208D00020BFF35F8F174B00221A6039
:103490008BF3108823E0184B184A1948C52100F017
:1034A00075FCFFF737FF8E4214D802D1039B83428D
:1034B00010D80E4B1B78BB420ED00D4B1D625D63C6
:1034C0001F222240012393400E4A1360074B1F70B6
:1034D0000120D8E70020D6E70120D4E7012004B07E
:1034E00080BCBB46F0BDC046280100D0A3B402207A
:1034F00000400540F4B30220407C081010920910EF
:10350000647C081080E200E0EFF3108C72B60B4B85
:103510001B68002BFBD0BFF35F8F01238340084A59
:10352000136208490A789A430A70BFF35F8F034B0E
:1035300000221A608CF310887047C046280100D022
:1035400000400540A3B4022010B5002908D0037B39
:103550008B4205D300684B005B18033BC01810BDBD
:10356000024B034A0348682100F010FC047A08105B
:1035700084920910207A0810F8B506000C00150096
:10358000FFF7E2FF0700002C0DD0002D11D0AC4258
:1035900015D029003000FFF7D7FF84703B78002B4F
:1035A00013D13D70F8BD0A4B0A4A0B486F2100F059
:1035B000EDFB0A4B074A0848702100F0E7FB084B77
:1035C000044A0548712100F0E1FB43703D70E9E7D2
:1035D0007C7A081070920910207A0810887A0810F6
:1035E000947A081070B506000D001400002914D05C
:1035F000002A14D0436880689847002806D022002B
:1036000029003000FFF7B8FF280007E02A0021005A
:103610003000FFF7B1FF200000E0100070BD08008F
:10362000FCE770B505000023437301338373037B0C
:10363000C373012406E021002800FFF785FF013451
:10364000E4B24470297BA142F5D82800FFF77CFF43
:103650000023437070BD10B5017342608360FFF7B3
:10366000E0FF10BDF0B5C64600B505000C1E03D145
:10367000200080BCB846F0BDFFF766FF4678002EFC
:10368000F6D031002800FFF75FFF47780023984607
:10369000437021002800FFF757FF43464370320074
:1036A00021002800FFF79EFF040039002800FFF7E3
:1036B000D9FF020021002800FFF794FF0400D7E79C
:1036C000F0B5C64600B504000D001700002927D04C
:1036D000FFF73AFF4378002B28D18378002B2BD1BA
:1036E00001782000FFF7BEFF06008046002F0AD0B9
:1036F000E17B002926D1A37B002B03D1E37B002BA8
:1037000025D1A573E5734346002B26D1290020005F
:10371000FFF71AFF00234370300080BCB846F0BDAD
:10372000114B124A1248382100F030FB114B0F4A5E
:103730000F483A2100F02AFB0F4B0C4A0C483B2162
:1037400000F024FB2000FFF7FFFE4570D3E70B4B92
:10375000064A0748422100F019FB31002000FFF71C
:10376000F3FE00238370D1E7B87C08105C92091047
:10377000C07C08100C7D0810347D0810D07A081029
:1037800070B504000A00457B2900FFF799FF6073BC
:10379000280070BD70B506000C1E40D0437B8B42E4
:1037A00007D0FFF7D1FE05008178002906D100205F
:1037B00036E00121FFF7E4FF012031E03000FFF7A0
:1037C000C3FE0178A1420DD03000FFF7BDFE417865
:1037D000A1420AD00029F7D1124B134A13486B318A
:1037E00000F0D4FA6B78037001E06B78437000232B
:1037F000AB706B70012221003000FFF761FF020007
:10380000717B814205D03000FFF7ECFE7073012020
:1038100006E0074B044A0548712100F0B7FA002082
:1038200070BDC0467878081044920910C07C08101A
:10383000587D081070B5046BE30701D4200070BDFB
:1038400002003032C0239B0113430A4A1A60456AC2
:10385000836AAD01ED18AD02062000F0BFF90649FC
:1038600001F0CCFC0100280001F0C8FC0021FFF7AA
:1038700071FDE3E7010300004E0E000070B5040087
:103880000E001500FFF7D6FF22002C32E36A5E40DF
:10389000354080235B0113431D60206370BD000031
:1038A00070B505000C00062000F098F9C00021005A
:1038B00001F0A4FCC60908D00E4B9E4216D87F2307
:1038C0000340013334005E0800E001246C62AE6204
:1038D000002200212800FFF7D1FF062000F07EF92A
:1038E0008000A101891901F089FC70BD0026024CFD
:1038F000ECE7C046FEFF0000FFFF000010B50539F1
:103900004901013AD2000A43002B07D002210A43A1
:10391000012B01D0002102E0023100E0002111431F
:103920006E22FFF7ABFF10BD002909D00A22064B1B
:103930009C46604443425841044B4000C252704789
:1039400080225200F3E7C0460080FCBF04B402208E
:1039500070B505000C00062000F040F9061E27D0C7
:10396000174B9D4226D08022D203164B1A60164B6D
:103970001A60164B9B6811009943FAD10021280068
:10398000FFF7D2FF21002800FFF78AFF060000237F
:10399000012208212800FFF7B1FF2A002C328023E2
:1039A0009B01134310221A60094B2B630323AB6462
:1039B000300070BD80221204024B1A60D7E7C04667
:1039C0000080034000E0004000F0004000C00040E4
:1039D00001030000F8B5DE4657464E464546E0B5C1
:1039E00006000F0015000A9A934250D31A0E924611
:1039F0001B0298460A9A00234046514601F03CFCBF
:103A000081467400A419A4002F4B9C46644463684B
:103A1000834200D26060331FDBB29B46012B3CD94E
:103A2000C0239B012343802212011A60274BB2005E
:103A3000D158002907D0586901F0E0FB013043005C
:103A40001B18033BFDD26D0123685D40E0222A4034
:103A500080235B0123431A605A46012A28D9802318
:103A60009B012343802212011A604B4663604A4641
:103A700000234046514601F0FFFB144BB60098511D
:103A80000120F0BCBB46B246A946A046F8BD104B8B
:103A9000104A1148332100F079F9012FC0D1C02319
:103AA0009B01234303221A60A368DB07FCD5CAE706
:103AB0002168794003220A401A60A3680125BD40AD
:103AC0001D42FAD0CBE7C04600800040E4AE0220A1
:103AD000787D0810909209108C7D081030B583B065
:103AE0000C2000F011F9FEF7C3FB00280DD00023D5
:103AF00004E02E4A99002E4888500133092BF8D94A
:103B00002A4B2C4A5A6203B030BD2B4B00229A67D5
:103B100000F002F9294B01221A60274B5B6C012B44
:103B2000FBD1274B03221A60234B9B6B012BFBD14C
:103B3000013300930433234A0121234800F054F851
:103B400005230093214A0121214800F04DF8214B23
:103B50000093002202210420FFF73CFF1E4D009538
:103B60002B00002201210520FFF734FF104C0094A8
:103B70002300002200210720FFF72CFF00942300E0
:103B8000002200210820FFF725FF0A4B00932300A5
:103B9000002200210920FFF71DFF00952B000022C5
:103BA00000210620FFF716FFADE7C046E4AE022075
:103BB000006CDC021BB70000008000403CB00040FD
:103BC00030B00040002F685900800240008C8647CA
:103BD00000C00240001BB70040597307014B800032
:103BE000C0587047E4AE0220F0B5C64600B50400E8
:103BF0000E0017001D00374801F000FB8046364BD1
:103C0000FA18364B9A4239D80100380001F0F6FA1A
:103C10000200103A98235B009A4235D86B1E062B9F
:103C200038D8069B013B062B34D83F09474537D38C
:103C30002D04069B1B031D432368002B36DB284BFA
:103C40009C4244D080235B01264A1360264A1360BD
:103C5000264A926819009143FAD12660A060221D7D
:103C6000C0239B01134321221A602268002AFCDA38
:103C7000E56008221A6080BCB846F0BD1C4B1D4AA6
:103C80001D48112100F082F81C4B1A4A1A481921CC
:103C900000F07CF81A4B174A17481C2100F076F800
:103CA000184B144A1448232100F070F822683F236F
:103CB0001340B342C3D1A3681B051B0D8342BED181
:103CC000E368EE22D2021340AB42B8D1D3E780239F
:103CD0009B01B9E7001BB70080E84BD380F8A932FD
:103CE00000C0024000E0004000F0004000C0004082
:103CF000E47D0810A0920910447E0810947E0810FC
:103D0000B07E0810FC7E081080239B000343014A0C
:103D1000D362704700800540064BAA2212011A6048
:103D20002F22DA60044B054A1A60024B5B68002BB5
:103D3000FBDA7047004002400060024000B0FA0029
:103D400000BEFDE703000A4A1268002A08D0084AAC
:103D50001068C318074A9A4206D3054A1360704791
:103D6000034A05491160F2E701204042F7E7C046E7
:103D7000C4AF022000000420A4B402200020704739
:103D800001204042704710B5FFF7DAFF30B583B02D
:103D90000D001900002A0BD0074B084C019200932C
:103DA0002B000200200002F0D3FE0120FFF7C8FF25
:103DB000034B1A00F1E7C046187F0810287F08104F
:103DC00074AB081070B52B4B2B4A1A602B4B2C4A46
:103DD0001A602C4B9A682A4B9343FAD12A4C01E083
:103DE00008CC9847294B9C42FAD3FFF777FE234B28
:103DF000274A1A60234B9B68DB43DB01FAD1254B32
:103E000040229A675A671A67DA66234C09E0234B07
:103E1000234A24488721FFF7B9FF2000FEF7CAFC98
:103E20000834214B9C4209D22368002BF5D0012B8A
:103E3000EDD12000FEF7CBFC0834F2E71B4DA9685A
:103E40001B4CC022200002F065FCAC60EFF3058340
:103E5000002B00D000BEFEF777FAFEF795FCFEF7C8
:103E6000FDFF144C01E008CC9847134B9C42FAD359
:103E700070BDC04600E00040BFCDFBFE00F000403A
:103E8000FE7F3C0000C00040502400206024002041
:103E9000FFFFFF0100F0014048240020587F081078
:103EA000AC920910787F08105024002000ED00E04B
:103EB0000000002060240020842400200FB400B5FE
:103EC00083B0084802F014FE049B002B07D005A91C
:103ED0000191180002F01CFE034802F009FE0120C7
:103EE000FFF72EFFCC7F0810ECA208109A4200D2F8
:103EF00088547047704710B5002802D00B68496895
:103F0000984710BD0100002007E083001B185B00EC
:103F1000501C08601078C01830380A681378303B9D
:103F2000DBB2092BF1D97047F0B5DE4657464E4655
:103F30004546E0B583B093461F000C9B9A460D9C06
:103F40000E9B99460F9B9B0717D0B8460F000600A3
:103F500022E0551C4B4641462020B84701342A0038
:103F6000B442F6D33D004F465C46019B9B46B146AA
:103F70004646B84637002E000EE00192A34688461A
:103F80004E46B9460700EBE7013C551C5346185D09
:103F900043463900B0472A00002CF5D135003E00D9
:103FA00047460F9B9B0711D4100003B0F0BCBB46E3
:103FB000B246A946A046F0BD541C4B4641462020BF
:103FC000B8472200531BB342F6D3EDE7B0464E4646
:103FD000B9462F005D46F5E7F0B5CE46474680B5B9
:103FE00085B0944698460C9D0D9C0EAB1B78994667
:103FF000109A119B129EB7071CD4002B0CD0F70708
:104000000AD54F46002F02D10C37374204D0013B6E
:1040100002E030272F550134944201D21F2CF8D9E9
:10402000F70707D59C4205D21F2C03D830272F5500
:104030000134F5E7F70612D5770505D4002C03D037
:10404000944221D09C421FD00F9A102A2FD00F9A51
:10405000022A36D01F2C0AD830222A5501341F2CB0
:1040600005D84A46002A32D02D222A55013403961B
:1040700002930194009543466246FFF755FF05B051
:10408000C0BCB946B046F0BD621E012C17D00F9FD0
:10409000102F0BD014000F9A102AD8D1B206D6D503
:1040A0001F2CD4D858222A550134D3E7023CB2063B
:1040B000F1D41F2CEFD878222A550134CAE7140016
:1040C000C2E71F2CD3D860322A550134C2E77207E9
:1040D00003D52B222A550134C9E73207C7D5202240
:1040E0002A550134C3E7F0B5DE4657464E464546ED
:1040F000E0B593B081468A46089209931CAB10CB79
:104100001B789B461E9D219B9846002C03D11023B3
:1041100042469A4390468023DB0046461E40424674
:104120001A4218D0002C22D0002614E042469206F3
:104130001BD54121C918C9B20A39C9B2771C0AABCB
:1041400099552900200001F059F8AC4210D31F2FD7
:104150000ED83E0004002900200001F04FF8CBB239
:10416000092BE3D83033D9B2E8E76121E2E7270031
:1041700043460693209B05931F9B049303955B4640
:10418000029301970AAB0093099B089A514648464F
:10419000FFF722FF13B0F0BCBB46B246A946A046CB
:1041A000F0BDF0B5DE4657464E464546E0B597B001
:1041B0000A900B910C929A46209B9946219F22AA25
:1041C00013789B46249B0993259C289B98464A4636
:1041D0003A4302D11032934398468022D20045469A
:1041E0001540434613420AD04A463A4341D000257F
:1041F0002E0053460D934D46099B9A4621E02E0012
:1042000053460D934D46099B9A461AE04246920644
:1042100023D54122D218D2B20A3AD2B2731C99469F
:104220000EAB9A55524623002800390001F024F8BD
:10423000BC4220D813D04B461F2B16D84E46050043
:104240000F00524623002800390001F015F8D3B2C0
:10425000092BDBD83033DAB2E0E76122DAE7AA458E
:10426000E9D94E460D9B9A4608E04E460D9B9A466C
:1042700004E0002602E04E460D9B9A464346069314
:10428000279B0593269B0493099B03935B4602930C
:1042900001960EAB009353460C9A0B990A98FFF7C0
:1042A0009BFE17B0F0BCBB46B246A946A046F0BD87
:1042B000F0B5DE4657464E464546E0B591B08046DD
:1042C00089460C929A461A9C1B9D22002B002000C6
:1042D000290001F064FA002800D0F2E001225242E5
:1042E000D54B2000290001F055FA002800D0E8E065
:1042F00001225242D14B2000290001F035FA00285A
:1043000000D0DEE0002200232000290001F02CFA7A
:10431000002800D0EAE0069407958023DB001E9A6F
:104320001A400D921E9A1A4201D106231C93069838
:10433000079902000B000892099303000A00024348
:1043400000D1DFE0080D4005400DBD4EB44660448D
:10435000079E3203120B1E00BA4B13431F0001F0DD
:1043600031FAB94AB94B01F0B4F9B94AB94B01F085
:1043700089F9089009910022B74B3000390001F00B
:1043800078F9B64AB64B01F0A4F902000B00089880
:10439000099901F077F901F02DFA834601F012FA3C
:1043A00006000F00AF4AB04B01F093F90022AF4B6B
:1043B00001F068F901F01EFA0890AD4AAD4B3000EB
:1043C000390001F086F906000F00089801F0FAF9AB
:1043D000A94AAA4B01F07DF902000B003000390018
:1043E00001F047F906000F0002000B0001F071F91F
:1043F0000A900B91089BA24A944663440021002234
:10440000089109921B0509930023089332003B0091
:104410003000390001F036F90E900F9132003B0068
:1044200000208021C90501F024F906000F000022B8
:10443000944B0A980B9901F02EF90022924B01F04F
:1044400021F902000B000A980B9901F024F90022CF
:104450008E4B01F017F902000B000A980B9901F03E
:104460001AF902000B003000390001F00BF90200CC
:104470000B000E980F9901F00EF90022714B01F01C
:1044800001F9089A099B01F024F906000F0008962B
:104490000997069A079B01F07DF900280BD00123AC
:1044A0005B429C46E3440022774B3000390001F028
:1044B000F2F8089009915B466333C62B45D8042671
:1044C00023E01E9B04931D9B03931C9B029300946B
:1044D000019553460C9A4946404600F0FBF811B04E
:1044E000F0BCBB46B246A946A046F0BD0021002262
:1044F00006910792069480231B069C46AC446346B3
:1045000007930AE700239B4604261E9B1B0528D51C
:10451000089A099B190011430FD05D4A5D4B06981C
:10452000079901F02FF900287AD000225A4B0698FB
:10453000079901F019F9002872D01C9B5B4506DD34
:104540005A469B1A013B1C9303E00526DDE7002336
:104550001C938023DB001E9A1A431E920026002320
:104560009B461D9B9E4265D29F1B02231E9A1A40AA
:104570000A921E9A134202D0002E00D000275B46FA
:10458000002B07D0089A099B0698079901F083F839
:1045900006900791002200232000290001F0E4F892
:1045A000002800D07CE03D4B1E9A134004930397F3
:1045B0001C9B0293069B079C0093019453460C9A04
:1045C0004946404600F086F8002E00D187E71E9B42
:1045D0009B0671D54525441C5346020049462800D8
:1045E000C0475A46D317D2185A4005230593013EB7
:1045F0000496002303930A3302935B46DB0F019377
:1046000000925346220049464046FFF76CFD0A9B44
:10461000002B00D163E7020047460C9E1D9D53E02E
:104620001C9B002B9DD00D9B002B9AD01C9B013B0B
:104630001C9396E7002798E7FFFFEF7FFFFFEFFF50
:1046400001FCFFFF0000F03FFB799F501344D33F74
:10465000B3C8608B288AC63F0000F83F61436F6390
:10466000A787D23F71A379094F930A400000E03F2A
:104670001655B5BBB16B0240EF39FAFE422EE63F4C
:10468000FF03000000002C40000024400000184000
:104690002D431CEBE2361A3F80842E41FFF7FFFFCB
:1046A000069C079D22002900802000068446614464
:1046B0000B000692079376E765258CE7541C53465A
:1046C00049462020B8472200931BAB42F6D3100086
:1046D00005E7C046F0B5DE4657464E464546E0B5CE
:1046E00095B00690079193469946209F1E9A1F9B6E
:1046F0001000190001F053F8002831D10122524274
:10470000BC4B1E981F9901F02FF8002837D10122C9
:104710005242B94B1E981F9901F03CF800283DD138
:104720000022B64B1E981F9901F034F800284AD198
:104730000022B34B1E981F9901F016F8002842D1B1
:10474000002200231E981F9901F00EF800284AD17C
:1047500000239846229B5B0500D4B0E0002452E081
:10476000229B0393219B029303230193A54B009368
:104770004B465A4607990698FFF7D6FB08E1229B5D
:104780000393219B0293042301939F4B00934B4679
:104790005A4607990698FFF7C7FBF9E0229B5B078B
:1047A0000ED59A4B042222990391219902910192EC
:1047B00000934B465A4607990698FFF7B5FBE7E08A
:1047C000934B0322EFE7229B0493219B03930297D1
:1047D0001E9B1F9C009301944B465A4607990698CE
:1047E000FFF766FDD4E01E9A1F9B0020002100F019
:1047F00040FF1E901F9101239846ABE70CAB30227F
:104800001A55013F01341F2C01D8092FF6D81E98E4
:104810001F9900F0EFFF050000F0D4FF02000B002D
:104820001E981F9900F025FF7A4BFA009B181A6812
:104830005B680A920B9300F04CFF0890099100F01E
:10484000FDFF060000F0BAFF02000B00089809996E
:1048500000F00FFF0890099100226F4B00F09AFFC3
:1048600000282ED00136300000F0A8FF02000B0017
:104870000A980B9900F07EFF002801D00135002630
:10488000002F2CD1280000F09DFF02000B001E9885
:104890001F9900F0EEFE06000F0000225E4B00F0B4
:1048A00063FF002846D100225B4B3000390000F046
:1048B00071FF00283ED1EB073CD501353AE00627D1
:1048C0004CE70022544B0898099900F04DFF00284E
:1048D000D6D1002E01D0F307D2D50136D0E7AA46B3
:1048E0001F2C11D8013F0A21300000F087FC651C05
:1048F00030310CAB19550A21300000F07FFC092E35
:104900000ED906002C00EBE755461F2C0CD87B1E59
:10491000002F09D00CAA302111551F000134F4E7F3
:104920002B0055461C00F0E71F2C03D80CAB2E22A1
:104930001A5501341F2C10D80A21280000F036FC2B
:10494000661C30310CAB19550A21280000F02EFCF2
:10495000051E01D03400EDE734000323229A1340F2
:10496000012B1CD01F2C06D84346002B32D00CAB99
:104970002D221A550134229B0393219B029301940B
:104980000CAB00934B465A4607990698FFF7CCFAB2
:1049900015B0F0BCBB46B246A946A046F0BD219B6F
:1049A000002B13D04346002B02D10C3313420FD0FF
:1049B000219B013B2193190003E00CAB30221A55D7
:1049C00001348C42CED21F2CF7D9CBE72199F8E7DE
:1049D0002199F6E7229B5B0704D50CAB2B221A55D5
:1049E0000134C8E7229B1B07C5D50CAB20221A5502
:1049F0000134C0E7FFFFEFFFFFFFEF7F65CDCD4143
:104A000065CDCDC1E87F0810EC7F0810DC7F081071
:104A1000E47F0810589409100000E03FF0B5DE462E
:104A200057464E464546E0B593B007008A46934642
:104A30001193002900D12CE3002508E06C1C5B4693
:104A40002A005146B847119B013311932500119B51
:104A50001878002800D11EE32528EFD101331193E7
:104A60000023180020E00123184301321192012491
:104A700018E00223184301321192012412E00423AA
:104A800018430132119201240CE00823184301322B
:104A90001192012406E010231843013211920124DF
:104AA00000E00024002C09D0119A1378203BD9B2E1
:104AB0001029F6D88B00C449CB589F468146119BDC
:104AC0001A781300303BDBB2092B10D92A2A13D0F5
:104AD0000B94119B1A782E2A20D0119A1378683BD8
:104AE000D9B2122965D88B00B849CB589F4611A876
:104AF000FFF708FA0B90ECE71C9B1A1D1C921B6831
:104B0000002B04DB0B93119B01331193E1E702228D
:104B10000100114389465B420B93F4E78022D200E7
:104B20004946114389465A1C11925A781300303B6A
:104B3000DBB2092B0BD92A2ACFD11C9B1A1D1C9240
:104B40001C68002C08DB119B01331193C5E711A8E9
:104B5000FFF7D8F90400C0E70024F4E780235B00E6
:104B600049460B43511C119151786C2901D099464B
:104B70001FE0C0239B004946194389460232119227
:104B800017E0802349460B43511C11915178682945
:104B900001D099460DE0C0234946194389460232A7
:104BA000119206E080235B00494619438946013291
:104BB0001192119B187867281CD8252800D25EE234
:104BC0000300253BDAB2422A00D958E29300804A1A
:104BD000D3589F4680239B0049461943894601329A
:104BE0001192E6E780235B0049461943894601326A
:104BF0001192DEE7782800D941E2692800D23EE22E
:104C00000200693AD2B201239340724A134210D192
:104C10001A0600D50CE25B0500D430E21C9B1A1D7D
:104C20001C921E68002C00D0BAE1012252423300CF
:104C300096E16F2842D005D8582841D0622803D188
:104C4000022606E078283DD010234A469A43914632
:104C50000A26582838D0692805D0642803D00C22A9
:104C60004B46934399464B465A0502D5012293433E
:104C7000994669282DD064282BD04B469A0500D53B
:104C8000AAE0DA0500D5C2E05A0600D4D3E01C9AA7
:104C9000111D1C911168FF220A404B4605930B9B86
:104CA0000493039402960023019300925B462A002A
:104CB00051463800FFF717FA05002AE00826C8E732
:104CC0001026C6E71026C4E720224B461343994618
:104CD000C1E74B469A0520D4DA0551D45A0666D569
:104CE0001C9A111D1C911168FF220A40D01711183F
:104CF00041404B4605930B9B049303940296D20FBD
:104D0000019200915B462A0051463800FFF7EBF90B
:104D10000500119B0133119399E61C9A0732072174
:104D20008A43110008311C91116853689C46DB17B7
:104D30000C930D930C9A0D9B100048400E900D9B08
:104D400061464B400F930E980F990C9A0D9B801A59
:104D500099410E900F914B4608930B9B0793069435
:104D60000496002305936346DA0F029200900191A6
:104D70005B462A0051463800FFF713FA0500C8E7E2
:104D80001C9A111D1C911268D017111841400593EF
:104D90000B9B049303940296D20F019200915B4601
:104DA0002A0051463800FFF79EF90500B1E71A06C0
:104DB00005D51C9A111D1C910023D25E96E71C9A02
:104DC000111D1C91126891E7BC9209100093091003
:104DD0004C930910419000001C9A073207218A4326
:104DE000110008311C9108930B9B079306940496BD
:104DF00000230593029353681268009201935B4667
:104E00002A0051463800FFF7CCF9050081E71C9ACB
:104E1000111D1C9105930B9B049303940296002390
:104E20000193136800935B462A0051463800FFF750
:104E30005AF905006DE71A0606D51C9A111D1C913A
:104E400012681204120C28E71C9A111D1C9112689A
:104E500023E746281AD01C9B0733072293431A00E6
:104E600008321C924A4604920B9A039202941A68E2
:104E70005B68009201935B462A0051463800FFF7B9
:104E800029FC0500119B01331193E0E520234A46DC
:104E90001A439146DFE7672801D0472804D18023D1
:104EA0001B014A461A439146452801D0472803D1A1
:104EB00020234A461A4391461C9B073307229343FB
:104EC0001A0008321C924A4604920B9A03920294EA
:104ED0001A685B68009201935B462A0051463800CD
:104EE000FFF7E6F90500119B01331193AFE50223AB
:104EF0004E461E404A4613421ED001241C9B1A1DDA
:104F00001C926A1C904618785B462A005146B847A6
:104F1000002E14D1119B01331193454697E5551C82
:104F20005B4651462020B84723002A005C1C0B99A1
:104F30009942F4D81500E1E701232A00F6E742463A
:104F400006E0561C5B4651462020B8472C00320034
:104F5000651C0B9BA342F4D89046DBE701330A00A3
:104F60001978002902D0511E002AF7D19B1B8022FC
:104F7000D2004946114088464946114202D0A34218
:104F800000D92300022249461140109149460A42A5
:104F900008D02A00250099463B004746984626E05F
:104FA000220044E6A1462A005146B2460E0006E021
:104FB000551C5B4631002020B84723002A005C1CAA
:104FC0000B999942F4D8150022004C4633005646FE
:104FD0009A4691462A0025003B004746984606E03F
:104FE0001D000136541C5B465146C04722003078F4
:104FF000002804D0002FF4D06B1E002DF0D1150036
:105000004B464746109A002A03D1119B0133119356
:105010001DE50B9E2A0006E0551C5B4651462020EC
:10502000B84723002A005C1C9E42F5D81500ECE727
:1050300021234A461A4313001C9A111D1C91126821
:1050400005930823049303940833029300230193E8
:1050500000925B462A0051463800FFF744F80500ED
:10506000119B01331193F2E46C1C5B462A005146FC
:105070002520B847119B013311932500E7E46C1CF0
:105080005B462A005146B847119B01331193250016
:10509000DDE40A4FD0E45D450DD35B465A1E5B4606
:1050A00051460020B847280013B0F0BCBB46B246BA
:1050B000A946A046F0BD2A00F1E7C046F53E001023
:1050C0000EB430B584B0010007AC08CC03940122C3
:1050D000054D009452422800FFF7A0FC04B030BCFC
:1050E00008BC03B01847C046ED3E001010B582B0B2
:1050F000044C009313000A0001002000FFF78EFC0F
:1051000002B010BDED3E001010B584B00C0002A935
:1051100002904C6001240448009313006242FFF7A0
:105120007DFC04B010BDC046F73E001001480421CC
:10513000014B1847E012002075510010014B5B68CD
:1051400018470000E0120020014B9B681847000040
:10515000E012002010B5010018231B8814221088CB
:10516000984710BD10B5010018231B88162210881F
:10517000984710BDF0B5C64600B507000E000025E3
:105180000123984600E00135B5420AD2AC003C1933
:105190002068FFF7DFFF20600028F4D10023984645
:1051A000F1E7404680BCB846F0BD0000124A936F5C
:1051B0009B0815D29066D166002905D0FFE7FFE76E
:1051C000FFE7516F106F704704B580210906C217C1
:1051D0005140002800D0C84382F032F9002104BDBC
:1051E000F0B5146E556E576F166FFFF7E3FF146638
:1051F000556657671667F0BD000000D0114A936FDF
:105200009B0813D210665166002905D0FFE7FFE71F
:10521000FFE7516F106F704704B5002801D00020E0
:10522000C04382F00DF9002104BDC046F0B5146EF4
:10523000556E576F166FFFF7E5FF14665566576793
:105240001667F0BD000000D094464A4A926F92085B
:10525000624601D228E0C046F0B5464E346E756E07
:10526000776F366F00F020F89446424A1466556610
:10527000576716676246F0BD94463E4A926F9208A1
:10528000624601D254E0C046F0B53A4E346E756EB7
:10529000776F366F00F04CF89446364A14665566C0
:1052A000576716676246F0BD002B24DB11D000293A
:1052B0003EDA00B5C943404200D1013100F038F870
:1052C000C943404200D10131DB43524200D1013396
:1052D00000BD002AEBD1002801D1002905D0002013
:1052E000C90FC90701D1C043410800B582F080F859
:1052F0000022002300BD00B500290ADBDB43524237
:1053000000D1013300F014F8C943404200D101310B
:1053100000BDC943404200D10131DB43524200D1BC
:10532000013300F005F8DB43524200D1013300BDE8
:10533000002923D1002B18D1002A0CD0BC460D4FD8
:1053400038667A6600210023FFE7FFE7FFE77A6F00
:10535000386F67467047002801D00748010000B544
:1053600082F046F80022002300BD02000B0000205E
:1053700000217047000000D0FFFFFFFF002B00D08E
:10538000BFE0130C28D1002AE7D080B4114F396652
:105390007A66FFE7FFE730B4040C7B6F396F1B04BC
:1053A00023433B667A66FFE7FFE7FFE7C04684B228
:1053B0007B6F3D6F1B0423433B667A66FFE7FFE785
:1053C000C04600232C042D0C7A6F386F00196941F8
:1053D000B0BC7047000000D0F0B594460025140E14
:1053E00001D112020835140F01D112010435940FB6
:1053F00001D192000235D40F01D152000135D40BF6
:105400000134254F7C66254C3C660E0C93B2FFE7B9
:10541000FFE7FFE73C6F6643360C7703BE467343F6
:10542000DF0B5B04C01AB941130C7343DB18C91AB4
:10543000CE086643360CB64493B273431F0F1B016C
:10544000C01AB941130C73431F0B1B05C01AB94195
:10545000860D8F023E436643360C092D24DB520A2B
:105460007243801A7703460A6643360C16235B1B89
:10547000DE40DF40BF1964466643821B7046043538
:1054800006330100D940A840C01900D30131A2421F
:1054900006D20023F0BD0000000000D0FFFFFFFF98
:1054A000121B0130F3D3F1E709277F1BFE4064464E
:1054B000A2B27243801A00D20139220C7243130C3B
:1054C0001204821A99410B0070460435133701000B
:1054D000F940A840801900D30131002B02D1A2422B
:1054E0000AD2F0BD013000D30131121BFAD2013BC8
:1054F000F8D1A24200D2F0BD013000D30131121B1D
:10550000F7E7F0B51C0C00D080E00CB400251C0AB5
:1055100004D11B02160E3343120208351C0B04D1B2
:105520001B01160F3343120104359C0B04D19B0061
:10553000960F334392000235DC0B02D192185B4187
:1055400001351C00971864410134464F7C66464C77
:105550003C660E0CFFE7FFE7FFE7C0463C6F664383
:10556000360C7703BE4697B27743C01B00D2013991
:10557000C01B00D201399FB27743C91BC91B170C4E
:1055800077437E04FF0B801BB941CE086643360C7F
:105590000C2D33DBB644120B1F053A431B0B97B29D
:1055A0007743C01B00D201399FB27743C91B170C48
:1055B00077433E043F0C801BB941860D8F023E436A
:1055C000664329277F1BFE400C3D7746AF40BF193D
:1055D00030BCA2B2ABB272437343801A9941220C21
:1055E0007243130C1204801A994102000B00013718
:1055F000001BA941F9D2781E0021F0BD0C277F1BAA
:10560000FE4077467F0BAF40FF19E0E700245D1CAA
:1056100007D0144F7D663966FFE7FFE7FFE7FFE736
:105620003C6F95B29EB265436643401BB141150C79
:105630001E0C6543664336042F0C3E432D04401B6D
:10564000B141994204D202000B0020000021F0BDBC
:1056500001D19042F7D3801A994101349942F2D393
:10566000F6E70000000000D0FFFFFFFF4840414088
:10567000484018B41B4B5B68FC46019308BD04DF2F
:10568000135A001018B4174B1B68FC46019308BD51
:1056900000DF1D5A00109446134A926F920809D2F7
:1056A000624618B40F4BDB68FC46019308BD0CDF63
:1056B000D55C00100C4AF0B5146E556E576F166F1E
:1056C0006246FFF7EEFF084A14665566576716678D
:1056D000F0BD18B4034B9B68FC46019308BD08DF7E
:1056E000795B0010ECB10220000000D0FFB5504003
:1056F0004240504059404B40594000E0FFB5154FE3
:105700004C00640D03D0BC4204D10C0314D800201B
:10571000090D09055C00640D03D0BC4204D11C03D3
:105720000AD800221B0D1B0501264B4009D44B4013
:1057300003D58B4200D18242FFBD9942FCD19042F9
:10574000FFBD0B43DB1803431343F5D0C94349188E
:10575000FFBD0000FF07000000B5FFF7CFFF01D03D
:10576000002000BD012000BD00B5FFF7C7FF80414C
:1057700000BDC04600B5FFF7C1FF01D9002000BD44
:10578000012000BD00B5FFF7B1FF01D9002000BD29
:10579000012000BD00B5FFF7A9FF804100BD012039
:1057A00040054A00121804D85A00121801D80020E7
:1057B000704701207047002070470000002100283A
:1057C00005D17047C1174840401AFAD0C90713B530
:1057D000064B1B6898470CBC441CA2401005120BDA
:1057E0000349091B09051943114310BDECB20220FE
:1057F0001F04000010B54C00620D8023D218DB009E
:10580000D21A5B057E2A10DD9E3A13DACC17090303
:10581000490819435242D140640001341532202A0C
:1058200005DAD0400843604310BD002010BD084693
:10583000604310BDC80FC018013810BD18B4044B28
:105840005B6AFC46019308BD24DF855E0010000002
:10585000ECB1022018B4044BDB6DFC46019308BD8B
:105860005CDF915F00100000ECB10220C94211D34F
:1058700000B549004908002200F018F8002904D4B6
:10588000002240428A41114600BD802109060020C5
:1058900000BD000018B4044BDB6EFC46019308BD4C
:1058A0006CDF935E00100000ECB1022018B4044BD2
:1058B0009B6FFC46019308BD78DFAF5E00100000CF
:1058C000ECB1022018B4044BDB6FFC46019308BD19
:1058D0007CDF1D5F00100000ECB1022018B4044B07
:1058E0001B6DFC46019308BD50DF65610010000090
:1058F000ECB1022070B513231C78012C12D0012CBE
:1059000012DC214B214A93642148FFF723FC214BF1
:10591000186070BD1C491D4A9800815001331F2B2F
:10592000F8D9ECE70023FAE71B48FFF71BFC05005A
:105930001A48FFF717FC023803789B007F2B09DD1C
:1059400012488022290000F0E5FE022C08D0022C2B
:10595000DADCD6E7124B134A13483221FEF716FA67
:10596000124B1A88B5231B029A4209D1104B1A8890
:10597000104B9A4204D1104B1A88104B9A42E6D031
:105980000020FEF79BFAC046D9590010ECB1022066
:105990004C330000ECB20220534400005346000098
:1059A000F47F0810A89409104880081054380000AB
:1059B000D8380000494600009C38000059460000D5
:1059C00010B5FFF78BFF024A024BFFF782FE10BDB6
:1059D0000EE526157BCBDB3F07B56046002800D1DE
:1059E00000BE01880A0A0230DF2AFAD1C9B2820851
:1059F00004D3028840880004104300E00068024A93
:105A00005050039007BD0000ECB102200FB403BC5E
:105A10000CBCF0B50124E407634000E0F0B50C0DC8
:105A2000CF0F661E3605891B640503D3C943404268
:105A300000D30131640D03D0661CF60A07D0E41BC5
:105A400000207F00791C89078912803C24031D0DEA
:105A5000DF0F6E1E36059B1B6D0503D3DB435242E1
:105A600000D301336D0D03D06E1CF60A07D0ED1B79
:105A700000227F007B1C9B079B12803D2D032F1B68
:105A8000661B58D4A446202E46DA20371400BC40AA
:105A90001D00BD40F24033412A4380185941CB0FCD
:105AA00005D0C943C043002264425041514162467F
:105AB0004D0D28D10D0D07D100281FD024194041CC
:105AC0004941013A0D0DF9D0640006D3013000D3ED
:105AD0000131002C01D140084000013A0BD4941C44
